8=FIX.4.4|9=49|35=0|34=624|49=C1|52=20110314-01:11:36.219|56=C2|10=33|