8=FIX.4.4|9=107|35=P|49=BONDBROKER|56=ABCINV|34=307|52=20031030-16:46:18|70=20012358|75=20031030|60=20031030-16:46:17|87=3|10=177|