8=FIX.4.4|9=129|35=AT|49=ABCINV|56=BONDBROKER|34=304|52=20031030-16:46:23|755=3303GSCOCP001601|70=20012358|75=20031030|60=20031030-16:46:17|87=0|10=127|