8=FIX.4.4|9=254|35=8|34=1384|49=C1|52=20110314-03:24:28|56=C2|57=4930|369=888|6=0|11=SOMEID|14=0|15=USD|17=37236743|21=1|31=0|32=0|37=768113|38=20|39=0|40=2|44=17311|54=1|55=PL|59=1|60=20110314-03:24:28|110=0|150=5|151=20|198=5N|207=C3|526=4930-O-o03111131|541=20110401|10=204|