8=FIX.4.4|9=84|35=E|66=1|394=1|68=1|73=2|11=1|67=1|55=IBM|54=1|38=100|11=2|67=2|55=IBM|54=1|38=200|10=017|