8=FIX.4.4|9=52|35=0|34=2|***NON-NUMERIC***=TW|52=20110328-09:00:00|56=TARGET|10=0|
