8=FIX.4.4|9=193|35=B|49=SENDER|56=TARGET|34=2|52=20110329-12:00:00|347=UTF-8|148=HEADLINE|33=1|58=TEXT|354=77|355=€ is the Euro character, aka U+20AC, which in UTF-8 is 3 hex bytes E2 82 AC|10=226|
