8=FIXT.1.1|9=160|35=3|1128=9|49=GATEKEEPER|56=BADBOY|34=123|52=20010911-14:30:47|45=666|58=No Sir, I didn't like it|10=96|
