8=FIXT.1.1|9=160|35=D|1128=9|49=AFUNDMGR|56=ABROKER|34=521|43=N|97=N|52=20010911-14:30:47|11=123456|1=26522154|55=IBM|48=459200101|22=1|54=2|60=20010911-14:30:47|38=1000|40=2|44=93.25|1184=21|1185=<someXML xmlns="NS"/>|10=96|
