8=FIXT.1.1|9=260|35=D|1128=9|49=AFUNDMGR|56=ABROKER|43=N|97=N|52=20010911-14:30:47|11=123456|1=26522154|55=IBM|48=459200101|22=1|1184=77|1185=<?xml version="1.0" encoding="UTF-8" standalone="no"?>
<someXML xmlns="NS"/>
|1186=SSS|54=2|60=20010911-14:30:47|38=1000|40=2|44=93.25|10=123|